:100000000C943E000C945D000C945B000C945B001F
:100010000C945B000C945B000C945B000C945B00F4
:100020000C945B000C945B000C945B000C945B00E4
:100030000C945B000C945B000C945B000C945B00D4
:100040000C945B000C945B000C945B000C945B00C4
:100050000C945B000C945B000C945B000C945B00B4
:100060000C945B000C945B000C945B000C945B00A4
:100070000C945B000C945B000C945B0011241FBE7D
:10008000CFEFD8E0DEBFCDBF12E0A0E0B1E0E4EA00
:10009000FAE202C005900D92A636B107D9F722E028
:1000A000A6E6B2E001C01D92AC36B207E1F70E94AD
:1000B000400F0C943E150C9400001F920F920FB647
:1000C0000F9211242F933F934F935F936F937F93DE
:1000D0008F939F93AF93BF93EF93FF930E94760B01
:1000E000E09AFF91EF91BF91AF919F918F917F9196
:1000F0006F915F914F913F912F910F900FBE0F9095
:100100001F901895FC016083F8943AB1208181E03A
:1001100090E0022E01C0880F0A94EAF780958323AD
:100120008AB9223069F48091690081608093690006
:10013000809169008D7F80936900E89A7894089592
:100140002330E1F780916900846080936900809199
:100150006900877F80936900E99AF0CFFC018FE501
:100160009AEE0197F1F700C000008081823021F4FF
:1001700088274A9983950895833021F488274B9BDB
:100180008395089580E00895EFE5FAEE3197F1F751
:1001900000C00000823021F488274A9B839508958F
:1001A000833021F488274B998395089580E0089542
:1001B000FC018081823011F4E8980895833009F4BD
:1001C000E998089510927C0086E880937A0008955B
:1001D00010927A00089580917C00807E80937C004C
:1001E00080917C006770862B80937C0080917A00E0
:1001F000806480937A0080917A0084FFFCCF8091A4
:100200007A00806180937A00209178008091790053
:1002100090E0982F8827820F911D96958795969547
:1002200087950895FC017183608353834283148210
:1002300084E6858389E686838BE187830898158E1B
:100240000895CF93DF93EC016C81888199810E949E
:10025000EB008C8FDF91CF910895CF93DF93EC016A
:100260006C81888199810E94EB008C8F28961F9267
:100270008F9386E291E09F938F93DF93CF930E94B9
:100280006A1289E291E00E94F80ECE010E94F80EF7
:100290000F900F900F900F900F900F9080EF91E0C4
:1002A000DF91CF910C94F80ECF93DF93EC016C812A
:1002B000888199810E94EB00982F8C8F8D819817EF
:1002C00020F081E02E81291708F480E08D8FDF91E6
:1002D000CF910895CF93DF93EC016C818881998150
:1002E0000E94EB00982F8C8F81E02F81921708F4E9
:1002F00080E08D8FDF91CF910895FC017183608341
:1003000087B18F7187B987B1877E87B9089586B124
:1003100087FB992790F990936A0286FB992790F9B9
:100320009093690285FB992790F99093680284FB6A
:10033000992790F99093670283FB882780F980932F
:10034000660208950E9487018091690290916A0275
:10035000890F90916802890F90916702890F90919F
:100360006602890F089580916802811108C080910A
:100370006702811104C080916902811551F080915A
:100380006602811105C080916A0291E08927089573
:1003900080E0089580916802811591F08091670254
:1003A00081110DC09091690291110AC0909166026D
:1003B000911106C080916A0291E08927089580E03A
:1003C000089580916802811569F080916702811516
:1003D00049F080916602811529F080916A028111AD
:1003E00080916902089580916802811561F0809181
:1003F0006702811541F080916602811521F080919C
:100400006A0291E08927089580916802811561F060
:1004100080916902811541F080916A02811521F075
:100420008091660291E08927089580916802811188
:1004300011C09091670291110EC0809166028111E6
:1004400009C090916A02911106C08091690291E001
:100450008927089580E008950F931F93CF938C010F
:10046000C62F0E948701C8010E941502282FF8019B
:1004700080819181211561F00E94680B8FEC97E0DB
:100480000197F1F700C00000CF911F910F910895DF
:1004900020916802211531F06C2FCF911F910F919F
:1004A0000C94690A6BEF6C0F20916702211104C054
:1004B00020916602211541F0CB5F462F6C2FCF9122
:1004C0001F910F910C94950A20916902211104C08B
:1004D00020916A02211501F34AE04C0FF0CF8F9270
:1004E0009F92AF92BF92CF92DF92EF92FF920F93C3
:1004F0001F93CF93DF934C01EB017A0169015801FF
:1005000000ED17E0C4010E94A20198819817D0F471
:10051000888380916602F501811529F080916A0235
:10052000811102C0F601108263E2C4010E942C0214
:100530008FEC97E00197F1F700C0000001501040E8
:1005400009F707C0F7019081891770F7808381113F
:10055000EBCFDF91CF911F910F91FF90EF90DF9044
:10056000CF90BF90AF909F908F900895BF92CF9201
:10057000DF92EF92FF920F931F93CF93DF93EC01E3
:100580008B016DE2888199810E94690A2FEF8EE9C3
:1005900094E2215080409040E1F700C000009CEDC3
:1005A000E92E95E0F92EBB24B3946DE28881998100
:1005B0000E94F70AEFECF7E03197F1F700C0000076
:1005C000CE010E948701CE010E94B3018115D1F0B6
:1005D000F801B08284EFC82EDD24D39468E2CE0106
:1005E0000E942C028FEC97E00197F1F700C0000009
:1005F000CE010E948701CE010E941502811539F0BB
:10060000F8011082F1E0EF1AF10879F608C0F1E084
:10061000CF1AD10819F7F8018081811599F3DF917C
:10062000CF911F910F91FF90EF90DF90CF90BF90EF
:100630000895EF92FF921F93CF93DF937C01162FC3
:10064000C8E7D5E0F701808191816DE2111581F055
:100650000E94E10A8FEC97E00197F1F700C00000DB
:10066000219781F7DF91CF911F91FF90EF9008952F
:100670000E94F70AEFCFBF92CF92DF92EF92FF92E4
:100680000F931F93CF93DF93EC018B019CEAE92E2C
:100690009DE0F92EBB24B3946DE2888199810E947C
:1006A000E10A8FEC97E00197F1F700C00000CE015E
:1006B0000E948701CE010E94B3018115D1F0F8019B
:1006C000B08284EFC82EDD24D39468E2CE010E946C
:1006D0002C028FEC97E00197F1F700C00000CE01EB
:1006E0000E948701CE010E941502811539F0F801A0
:1006F0001082F1E0EF1AF10879F608C0F1E0CF1AA4
:10070000D10819F7F8018081811599F3DF91CF9114
:100710001F910F91FF90EF90DF90CF90BF900895C1
:100720001F93CF93DF93EC01162FCE010E94150289
:10073000811549F0CE010E94B301811591F0DF913E
:10074000CF911F91089568E2CE010E942C028FEC98
:1007500097E00197F1F700C00000CE010E948701E9
:10076000E4CF888199816AE2111561F00E94E10A63
:100770008FEC97E00197F1F700C00000CE010E94D6
:100780008701D8CF0E94F70AF3CFCF93DF93EC0114
:1007900066E2888199810E94E10A8FEC97E00197D7
:1007A000F1F700C00000CE010E948701CE010E9437
:1007B000B301811569F3DF91CF910895CF93DF9352
:1007C000EC0160E00E941903CE010E94A201811594
:1007D00069F0888199810E94680B8FEC97E00197FE
:1007E000F1F700C00000DF91CF910895CE010E9483
:1007F000870168E2888199810E947F0A8FEC97E0E7
:100800000197F1F700C00000DFCFDF92EF92FF9277
:100810000F931F93CF93DF9300D000D0CDB7DEB7F7
:100820007C01DC018D919C910E948701F7018389F5
:1008300081113CC0E785E730C8F5F0E0E05CFA4E96
:10084000D7018D919C910C9484100E941502811502
:10085000B9F0F7018585813099F486858150823021
:1008600078F4848981110CC0D7018D919C910E94EC
:10087000B301F70120813181811521F181E0848B61
:10088000D7018D919C910E94A201833018F081E0E4
:10089000F701878768E2D7018D919C910E942C0215
:1008A000EFECF7E03197F1F700C000000F900F90E8
:1008B0000F900F90DF91CF911F910F91FF90EF90CC
:1008C000DF900895C9010E9487016BE2D70112965B
:1008D0008D919C910E94E10AEFECF7E03197F1F7DE
:1008E00000C00000C1CF21E02C832B831A8225E0B9
:1008F000D22ED9828E010C5F1F4F9E012D5F3F4F7C
:10090000AE014F5F5F4FBE016E5F7F4F0E946F026F
:100910008A81853081F48981811105C082E0D70107
:100920001F968C93C3CF8330B8F4F70186858F5F11
:1009300086871786BBCF8250833070F489818330DD
:1009400058F48B81811102C084E0E9CF8C81811140
:10095000ADCFF701D786AACFD7011F961C92A6CF9D
:100960001982BE016F5F7F4F0E94B6028981811597
:1009700029F0F70182858F5F8287DBCFD7018D91C8
:100980009C910E941502811509F490CF89818111F3
:100990008DCF83E0F701878789CF1982BE016F5F12
:1009A0007F4F0E943B038981811549F0D7011B9637
:1009B0008C911B978F5F1B968C931B97CECFF70163
:1009C000808191810E941502811509F46FCF898180
:1009D00081116CCF86E0A3CF61E00E949003F70104
:1009E00084858F5F8487A5CF60E00E949003D70144
:1009F0001D968C911D978F5F1D968C931D97ADCF83
:100A00000E94DE0381E0F701838B50CFFC01128648
:100A10001386148615861686148A0895BF92CF927F
:100A2000DF92EF92FF920F931F93CF93DF93CDB797
:100A3000DEB7E2970FB6F894DEBF0FBECDBF8C01D4
:100A4000F62EE42E622FFC01F08A428B218B8085EA
:100A500091850E947409C82EB92E6E2DF8018085EB
:100A600091850E948309E82ED92E6F2DF80180858B
:100A700091850E947409BF92CF92DF92EF929F936B
:100A80008F938EE391E09F938F93CE0101969F9376
:100A90008F930E946A120FB6F894DEBF0FBECDBFCF
:100AA000E2960FB6F894DEBF0FBECDBFDF91CF91B7
:100AB0001F910F91FF90EF90DF90CF90BF9008951E
:100AC000FC0193858585913079F425E440E08130FF
:100AD00039F02285213089F4913079F425E442E01F
:100AE00061E4CF010C940E05813099F72485213003
:100AF00081F723E441E062E4F4CF3485313029F416
:100B0000213041F424E443E0F6CF213031F424E4F1
:100B100041E0E6CF23E443E0E3CF25E440E0913039
:100B200051F3813019F425E442E0E5CF0895CF93E5
:100B3000DF93EC010E94600540E050E06AEE72E451
:100B40008E819F810E9416092FE78FE492E1215048
:100B500080409040E1F700C000008E819F810E949C
:100B60005E092FE788E391E0215080409040E1F753
:100B700000C0000040E050E06AEE72E48E819F8188
:100B80000E9416092FE78FE492E1215080409040A7
:100B9000E1F700C000008E819F810E945E092FE76F
:100BA00088E391E0215080409040E1F700C00000D0
:100BB0008989843451F0853489F040ED57E061E053
:100BC000833431F0DF91CF91089540ED57E060E03C
:100BD0008C819D81DF91CF910C94980640ED57E078
:100BE00062E0F6CFCF93DF93EC011B8A8C819D816D
:100BF0000E947F06CE010E9406058B898115A1F017
:100C0000CE010E9497056889888599850E946009B0
:100C10006A89888599850E946E0969898885998580
:100C2000DF91CF910C947109CE010E940504E5CFAC
:100C3000FC0122B1408181E090E0BC0102C0660F5E
:100C4000771F4A95E2F7262B22B922B1318101C0E4
:100C5000880F3A95EAF78095822382B90895FC01BE
:100C600022B1418181E090E0BC0102C0660F771F94
:100C70004A95E2F7262B22B922B1308101C0880FB4
:100C80003A95EAF78095822382B90895CF93DF934E
:100C9000D82FC92F0E9418068FE99FE00197F1F71E
:100CA00000C000008D2F9C2F0E942F068FE19EE434
:100CB0000197F1F700C00000DF91CF910895CB01BB
:100CC000009709F408958A30910540F0EFE1FEE4C1
:100CD0003197F1F700C000000A97F2CFEFECF7E090
:100CE0003197F1F700C000000197EACFFC0184E0E2
:100CF000808385E0818381B1806381B90895FC019F
:100D000042B1208181E090E0BC0102C0660F771FF4
:100D10002A95E2F79B012095242322B922B1318143
:100D200001C0880F3A95EAF78095822382B9089529
:100D3000EF92FF920F931F93CF93DF93D82FC92F7A
:100D40008A0161110DC00E941806B8018D2F9C2FD9
:100D5000DF91CF911F910F91FF90EF900C945F0660
:100D6000613019F40E942F06F0CFE12CF12C623093
:100D700001F10E947F06E9CF40E050E060E08D2F56
:100D80009C2F0E9498068FE99FE00197F1F700C021
:100D9000000040E050E061E08D2F9C2F0E949806FB
:100DA0008FE19EE40197F1F700C000009CE0E90E9E
:100DB000F11CE016F10600F38D2F9C2FDF91CF91EF
:100DC0001F910F91FF90EF900C947F06BF92CF92EE
:100DD000DF92EF92FF920F931F93CF93DF93EC017B
:100DE000B62E122F032FC12CD12CE42EF12CCE14B1
:100DF000DF0454F0DF91CF911F910F91FF90EF909E
:100E0000DF90CF90BF900895412F502F6B2DCE01D2
:100E10000E949806CE010E947F06612F702FCE019E
:100E20000E945F068FEFC81AD80AE1CF089580EAC2
:100E3000809300011092B90080E28093B800089579
:100E4000FC0180E88083CF010C941707843028F4DC
:100E5000880F806A8093000108958FEF0895FA014A
:100E600094EA24E89093BC008091BC0087FFFCCFFB
:100E7000809100018093BB002093BC008091BC0056
:100E800087FFFCCF8091B900883161F784EA8093B5
:100E9000BC008091BC0087FFFCCF80910001809353
:100EA000BB0084E88093BC008091BC0087FFFCCF2E
:100EB0007093BB0084E88093BC008091BC0087FFE6
:100EC000FCCF6093BB0084E88093BC008091BC00A1
:100ED00087FFFCCF8091BC0087FFFCCF84EA809322
:100EE000BC008091BC0087FFFCCF809100018F5F28
:100EF0008093BB0084E88093BC008091BC0087FF96
:100F0000FCCF84E88093BC008091BC0087FFFCCFBD
:100F10008091BB00808384E98093BC0080E00895C9
:100F200094EA34E89093BC008091BC0087FFFCCF2A
:100F3000809100018093BB003093BC008091BC0085
:100F400087FFFCCF8091B900883161F784EA8093F4
:100F5000BC008091BC0087FFFCCF80910001809392
:100F6000BB0084E88093BC008091BC0087FFFCCF6D
:100F70007093BB0084E88093BC008091BC0087FF25
:100F8000FCCF6093BB0084E88093BC008091BC00E0
:100F900087FFFCCF84EA8093BC008091BC0087FF70
:100FA000FCCF809100018F5F8093BB0084E8809329
:100FB000BC008091BC0087FFFCCF84EC211105C0F0
:100FC00084E98093BC0080E00895213009F484E82E
:100FD0008093BC009091BC0097FFFCCFFA019091E8
:100FE000BB0091932150AF01E9CF94EA24E890939C
:100FF000BC008091BC0087FFFCCF809100018093F2
:10100000BB002093BC008091BC0087FFFCCF809187
:10101000B900883161F784EA8093BC008091BC00FC
:1010200087FFFCCF809100018093BB0084E8809310
:10103000BC008091BC0087FFFCCF7093BB0084E8AC
:101040008093BC008091BC0087FFFCCF6093BB0005
:1010500084E88093BC008091BC0087FFFCCF409364
:10106000BB0084E88093BC008091BC0087FFFCCF6C
:1010700084E98093BC0080E00895CF93DF93FB0167
:10108000260F372F311DEC0188818150990B862B5B
:101090009F2B2817390718F09C012F5F3F4F822F95
:1010A0008E1B24EA34E82093BC009091BC0097FF8B
:1010B000FCCF909100019093BB003093BC009091C5
:1010C000BC0097FFFCCF9091B900983161F794EA8A
:1010D0009093BC009091BC0097FFFCCF90910001D1
:1010E0009093BB0094E89093BC009091BC0097FF54
:1010F000FCCFF093BB0094E89093BC009091BC00AF
:1011000097FFFCCFE093BB0094E89093BC009091D4
:10111000BC0097FFFCCF982F24E8911106C094E9FA
:101120009093BC00DF91CF910895DA013D91309307
:10113000BB002093BC003091BC0037FFFCCF915026
:10114000AD01EBCFDF92EF92FF920F931F93CF93FE
:10115000DF93D82ED92F7B018A01C22F2C2FA80113
:10116000B7018D2D9D2F0E943D08E80EF11CC81B74
:10117000080F111DC111F2CF80E0DF91CF911F91B7
:101180000F91FF90EF90DF900895CF93DF930F9230
:10119000CDB7DEB7FC0104B601FE0FC0AE014F5F54
:1011A0005F4F60E070E0828193810E942F0714BE40
:1011B00089810F90DF91CF91089514BE8FEFF9CF01
:1011C000462F60E070E0FC01828193810C94F5076A
:1011D000EC0161E0CE010E94E00840ED57E061E0E3
:1011E000888199810E94980662E0CE010E94E00801
:1011F00040ED57E060E0888199810E94980663E0A5
:10120000CE010E94E00840ED57E062E088819981BC
:101210000E949806DECF84B18C6084B92A9884B588
:10122000867784BD84B5826484BD08954F925F92B1
:101230006F927F928F929F92AF92BF92CF92DF92E6
:10124000EF92FF92F42FE52F25B52C7F25BD25B514
:10125000246025BD16BC20E030E040E054E48F2F30
:101260009E2FDB01BC01CD010E94FD112B013C0131
:10127000A301920160E074E284EF9AE40E940B11F2
:1012800020E030E040E85FE34B015C01C501B401C0
:101290000E949E106B017C01C701B6010E947D1166
:1012A00067BDFF90EF90DF90CF90BF90AF909F9081
:1012B0008F907F906F905F904F90089515BC089528
:1012C000FC018FEB860F823008F460830895FC01E7
:1012D0008DEB860F823008F461830895FC016283F0
:1012E0000895FC01638308956154653048F4E62F46
:1012F000F0E0EE0FFF1FE75FFE4F808191810895C0
:101300008EE591E00895643048F4E62FF0E0EE0FAA
:10131000FF1FEF5FFE4F80819181089586E691E087
:101320000895FC01CB010197029710F47583648343
:101330000895FC01CB010397029710F4778366832D
:101340000895FC01CB010597029710F4718760871F
:101350000895CF93DF93EC010E94E30E8DE691E0B8
:101360000E94F80E8DE891E00E94F80E8CEA91E060
:101370000E94F80E6881CE010E9474090E94F80E46
:101380008FEB91E00E94F80EEA8186E691E0E4306E
:1013900038F4F0E0EE0FFF1FEF5FFE4F8081918188
:1013A0000E94F80E89ED91E00E94F80E6B81CE014B
:1013B0000E9474090E94F80E8FEE91E00E94F80ED0
:1013C00082EF91E00E94F80E85E991E00E94F80E0C
:1013D0008CEA91E00E94F80E6981CE010E947409A6
:1013E0000E94F80E89E092E00E94F80E8C810E9423
:1013F0000B0F8FE192E00E94F80E8E810E940B0F7E
:1014000085E392E00E94F80E88850E940B0F8FEE14
:1014100091E00E94F80E8A859B850E94F80E8BE46D
:1014200092E00E94F80E8C859D850E94F80E80EF58
:1014300091E0DF91CF910C94F80EFC018AB1806CA1
:101440008AB98AB180638AB9A0EBB0E08C91816AD5
:101450008C93A1EBB0E08C9184608C931092B300DC
:101460001092B400108211820895FC01362F2536A7
:1014700008F024E65FEF259FC001112464E670E0C8
:101480000E944E10313089F46093B300218355E0FF
:10149000411112C02BB181E090E001C0880F5A9534
:1014A000EAF7809582238BB908953111F0CF6093CC
:1014B000B400208354E0ECCF4130B1F78BB121E090
:1014C00030E001C0220F5A95EAF7822BECCF0C9442
:1014D000350A1F93CF93DF93182FD92FC62F262FAE
:1014E00040E060E00E94350A2AE02C0F40E061E015
:1014F000812F9D2FDF91CF911F910C94350A1F935F
:10150000CF93DF93182FD92FC62F262F41E060E00D
:101510000E94350A2AE02C0F41E061E0812F9D2FC7
:10152000DF91CF911F910C94350A1F93CF93DF93D6
:10153000D82FC92F262F142F40E060E00E94350AD3
:10154000212F40E061E08D2F9C2FDF91CF911F91E3
:101550000C94350A1F93CF93DF93D82FC92F162FE2
:10156000862F642F0E944210282F40E060E08D2FCC
:101570009C2F0E94350A212F40E061E08D2F9C2F87
:10158000DF91CF911F910C94350A0F931F93CF9346
:10159000DF93D82FC92F162F042F262F40E060E0AD
:1015A0000E94350A812F602F0E944210282F40E0B0
:1015B00061E08D2F9C2FDF91CF911F910F910C94A3
:1015C000350A1F93CF93DF93182FD92FC62F262FBD
:1015D00040E060E00E94350A25E02C0F41E061E028
:1015E000812F9D2FDF91CF911F910C94350A1F936E
:1015F000CF93DF93182FD92FC62F262F40E061E01D
:101600000E94350A25E02C0F41E060E0812F9D2FDC
:10161000DF91CF911F910C94350AEF92FF920F93B7
:101620001F93CF93DF93EC01162FF42EE22E61115E
:101630000FC008810F1570F02F2D40E0612FCE01F3
:10164000DF91CF911F910F91FF90EF900C94350A8D
:101650000981F0CF202F40E0612FCE010E94350A92
:101660008FE19EE40197F1F700C000000E0DE2CF7C
:10167000EF92FF920F931F93CF93DF938C01D62F9E
:10168000F42EE22EFC0161110FC0C081FC1670F037
:101690002F2D41E06D2FC801DF91CF911F910F9148
:1016A000FF90EF900C94350AC181F0CF2C2F41E0D0
:1016B0006D2FC8010E94350A8FE19EE40197F1F772
:1016C00000C00000EC1610F4CE19E0CFCF2DDECF15
:1016D000FC011092B3001092B400108211820895A0
:1016E000FC0180810895FC018181089582E00E94BF
:1016F000C400811519F081E080936B020895109267
:101700006B020895BF92CF92DF92EF92FF920F93F8
:101710001F93CF93DF93EC0100E010E0C12CD12C9C
:1017200076018A819B810E94A20181113FC08A813A
:101730009B810E94CA01811509F44EC08E819F8150
:101740000E94680B8FEC97E00197F1F700C0000052
:101750008A819B810E94A201B82E811157C08A8183
:101760009B810E94B301811509F466C08E819F811F
:101770000E94680B8FEC97E00197F1F700C0000022
:101780000115110541F0980140E050E0C701B60194
:101790000E946210B22E8B2DDF91CF911F910F917D
:1017A000FF90EF90DF90CF90BF9008956AE28E8116
:1017B0009F810E94F70A8FEC97E00197F1F700C034
:1017C00000008C819D810E942101C80ED11CE11C6A
:1017D000F11C0F5F1F4FA5CF8A819B810E9487015B
:1017E00068E28E819F810E94E10A8FEC97E0019769
:1017F000F1F700C000008C819D810E942101C80E7C
:10180000D11CE11CF11C0F5F1F4F91CF68E28E814C
:101810009F810E94E10A8FEC97E00197F1F700C0E9
:1018200000008C819D810E942101C80ED11CE11C09
:10183000F11C0F5F1F4F8CCF8A819B810E94870113
:1018400068E28E819F810E94F70A8FEC97E00197F2
:10185000F1F700C000008C819D810E942101C80E1B
:10186000D11CE11CF11C0F5F1F4F79CFCF93DF9389
:10187000EC018D898F5F8D8B8A819B810E9415027F
:101880002A813B81811599F08A819B810E94B30155
:101890008115E1F08E819F810E94680B8FEC97E0AB
:1018A0000197F1F700C00000DF91CF910895C901C1
:1018B0000E9487016DE28E819F810E94E10A8FEC78
:1018C00097E00197F1F700C00000D6CF8A819B8195
:1018D0000E9487016DE28E819F810E94E10A8FEC58
:1018E00097E00197F1F700C00000CECFCF93DF93D0
:1018F000EC0140E050E06CE574E48A859B850E9431
:1019000016092FE78FE492E1215080409040E1F7E3
:1019100000C000008A859B850E945E092FE788E34E
:1019200091E0215080409040E1F700C0000040E08D
:1019300050E06CE574E48A859B850E9416092FE7C8
:101940008FE492E1215080409040E1F700C0000018
:101950008A859B850E945E092FE788E391E02150EC
:1019600080409040E1F700C00000DF91CF910895E2
:101970000F931F93CF938C01C8E040E050E063E1E8
:1019800073E4F801828593850E941609FFE729EA2E
:1019900083E0F15020408040E1F700C00000F801F2
:1019A000828593850E945E09FFE728E381E0F1507C
:1019B00020408040E1F700C00000CA95F1F6CF91C9
:1019C0001F910F910895FC01108A118A128A138ABF
:1019D000148A158A178A0895FC0186898130F1F4EA
:1019E0008289813039F49589911104C094E4928FF1
:1019F000838F08958389813029F49589911511F099
:101A000093E4F5CF80898130E9F48589811521F04F
:101A100084E4828F82E0ECCF83E4FBCF823059F400
:101A20008189813019F483E0848F08958089813021
:101A300049F484E0F9CF833029F48189813019F4A5
:101A400085E0858F089583898130E1F786E0F9CFBD
:101A5000EF92FF920F931F93CF93DF9300D000D0AC
:101A6000CDB7DEB77C01DC0112968D919C910E946E
:101A70008701D7015996EC915997EB3008F05FC078
:101A8000F0E0E95BFA4E0C948410BFEFE3EDF0E375
:101A9000B150E040F040E1F700C00000C7010E94F3
:101AA000E30C81E0D70159968C93F7018689833046
:101AB00050F4848195810E945401811521F085E0C4
:101AC000D70159968C93F701828193810E94150268
:101AD0008115E9F0D70153968C9153978130B9F471
:101AE00054968C9154978150823088F457968C91FB
:101AF00081110DC0D70112968D919C910E94B30166
:101B0000F70122813381811529F181E0878BD7018B
:101B100012968D919C910E94A201833018F082E070
:101B2000F701818F68E2D70112968D919C910E94F6
:101B30002C02EFECF7E03197F1F700C000000F90B6
:101B40000F900F900F90DF91CF911F910F91FF9009
:101B5000EF900895C9010E9487016BE2F701868129
:101B600097810E94E10A8FEC97E00197F1F700C09E
:101B70000000C0CF81E08C838B831A8285E089834B
:101B80008E010C5F1F4F9E012D5F3F4FAE014F5FD7
:101B90005F4FBE016E5F7F4F12968D919C910E94A8
:101BA0006F028A818530F9F48981811104C086E051
:101BB000F701818FC4CF8330A0F4D70154968C9164
:101BC00054978F5F54968C93549756968C91569752
:101BD000833020F483E059968C93B1CF833009F0A1
:101BE000AECF81E0E5CF82508330D8F78981833052
:101BF000C0F78B81811103C088E0D701ECCF8C81C5
:101C000081119DCF89E0D4CF16968D919C910E9431
:101C1000680BEFE1FEE43197F1F700C00000C70167
:101C20000E94820B8A3010F081E0E7CF84E0C0CFC1
:101C3000C7010E94360C83E0E0CFF70186819781CF
:101C40000E94680B8FEC97E00197F1F700C000004D
:101C5000C7010E94B80CC7010E94EC0C10926B02E5
:101C6000D70156968C9156978F5F56968C9367CF77
:101C70001982BE016F5F7F4FF701828193810E94BD
:101C8000B6028981811551F0D70150968C915097F9
:101C90008F5F50968C93509781E09DCFF7018281A2
:101CA00093810E941502811509F449CF8981811120
:101CB00046CF87E0A2CF1982BE016F5F7F4FF70149
:101CC000828193810E943B038981811549F0D7016C
:101CD00051968C9151978F5F51968C935197DCCF91
:101CE000F701828193810E941502811509F427CFA3
:101CF0008981811124CF8AE080CF61E0F701828160
:101D000093810E949003D70152968C9152978F5FD6
:101D100052968C935297C0CF60E0F70182819381F5
:101D20000E949003D70153968C9153978F5F5396DF
:101D30008C935397B1CFC7010E94EC0CF7018281BD
:101D400093810E94DE0381E0D70158968C93F7CEF1
:101D5000CF93DF93EC01888599850E947F06CE01A1
:101D60000E94E30C188E1E8A888D8115E1F0CE0149
:101D70000E94760C6A8D8C859D850E9467096B8D0B
:101D800070E08C859D850E9491096C8D70E08C853A
:101D90009D850E9499096D8D70E08C859D85DF91F0
:101DA000CF910C94A10980916B02813031F4F894A9
:101DB000CE010E94280D7894D7CF198E88859985F9
:101DC0000E947F06D1CF1092C5008FEC8093C40093
:101DD0001092C00088E18093C10086E08093C20029
:101DE00008959091C00095FFFCCF8093C6000895A0
:101DF0000F931F93CF938C01C0E0F801EC0FF11DFE
:101E00008081811104C0CF911F910F9108950E948C
:101E1000F10ECF5FF2CF0F931F93CF93DF93CDB728
:101E2000DEB72C970FB6F894DEBF0FBECDBF1F9262
:101E30008F9383E692E09F938F938E010F5F1F4FE6
:101E40001F930F930E946A12C8010E94F80E0F9010
:101E50000F900F900F900F900F902C960FB6F89454
:101E6000DEBF0FBECDBFDF91CF911F910F910895BF
:101E70008091C00087FFFCCF8091C60090E008955C
:101E8000CDB7DEB7CE56D1090FB6F894DEBF0FBE80
:101E9000CDBF3E0129E6620E711CC3010E94760689
:101EA0008E0102591F4FC8010E9420071E0137E60C
:101EB000230E311CC1010E941D0A5E0180E6A80E9E
:101EC000B11CF50171826082138302838FEF8483DA
:101ED0002E01F2E54F0E511C83E191E0F201938750
:101EE000828788E191E0958784876E01FDE6CF0EB9
:101EF000D11CC6010E94E20062E0CE0184599F4FCE
:101F00000E9482004E012FE1820E911CA301B601B6
:101F1000C4010E9412017E0135E6E30EF11CB101FD
:101F2000C7010E947D0103501109C8010E940B09DD
:101F3000FEAEEDAE21963FAE2EAE219723967FAE3C
:101F40006EAE239725961FAF0EAF259727965FAEEF
:101F50004EAE279728961FAE289729961FAE299731
:101F60002A961FAE2A972B961FAE2B972C961FAE44
:101F70002C972D961FAE2D9786E42E968FAF2E9719
:101F80002F968FAF2F9794E060969FAF60976196E2
:101F90001FAE619762961FAE6297DA82C982FC8299
:101FA000EB829E828D8238862F827A8669861C8794
:101FB0000B875E864D86FE01E459FF4FF88BEF8755
:101FC000198A1A8A1B8A1C8A1D8A1E8A1F8A188EE1
:101FD000198E1A8E8B8F1C8E1D8E1E8E730185019D
:101FE0006201C8010E94C5088330A1F1A0F48130CC
:101FF000C1F08230B1F76FEFC8010E94E0082DE711
:1020000030E048E060E0C7010E94E606CE0101969C
:102010000E94A80EE6CF8F3F21F7C8010E94E80872
:10202000E0CF6FEFC8010E94E0082DE730E048E004
:1020300061E0C7010E94E606FFEF23ED30E3F150B7
:1020400020403040E1F700C00000CE01CD960E9454
:10205000F205C7CF6FEFC8010E94E0082DE730E01E
:1020600048E062E0C7010E94E606C6010E94A90995
:102070008FEF99E6E8E181509040E040E1F700C041
:102080000000AFCF992778E0880F991F961708F0C6
:10209000961B881F7A95C9F78095089597FB072EA0
:1020A00016F4009407D077FD09D00E948A1007FC2F
:1020B00005D03EF4909581959F4F08957095619558
:1020C0007F4F0895A1E21A2EAA1BBB1BFD010DC074
:1020D000AA1FBB1FEE1FFF1FA217B307E407F507D8
:1020E00020F0A21BB30BE40BF50B661F771F881FB4
:1020F000991F1A9469F760957095809590959B014A
:10210000AC01BD01CF010895EE0FFF1F0590F491C2
:10211000E02D0994AA1BBB1B51E107C0AA1FBB1FDE
:10212000A617B70710F0A61BB70B881F991F5A9563
:10213000A9F780959095BC01CD0108955058BB2713
:10214000AA270E94B6100C94C3110E94B51138F052
:102150000E94BC1120F039F49F3F19F426F40C942E
:10216000B2110EF4E095E7FB0C94AC11E92F0E943C
:10217000D41158F3BA17620773078407950720F044
:1021800079F4A6F50C94F6110EF4E0950B2EBA2F07
:10219000A02D0B01B90190010C01CA01A00111246D
:1021A000FF27591B99F0593F50F4503E68F11A1619
:1021B000F040A22F232F342F4427585FF3CF4695AA
:1021C00037952795A795F0405395C9F77EF41F16CC
:1021D000BA0B620B730B840BBAF09150A1F0FF0F96
:1021E000BB1F661F771F881FC2F70EC0BA0F621F82
:1021F000731F841F48F4879577956795B795F79572
:102200009E3F08F0B0CF9395880F08F09927EE0F06
:102210009795879508950E941F110C94C3110E94F1
:10222000BC1158F00E94B51140F029F45F3F29F02D
:102230000C94AC1151110C94F7110C94B2110E9432
:10224000D41168F39923B1F3552391F3951B550BE2
:10225000BB27AA2762177307840738F09F5F5F4F79
:10226000220F331F441FAA1FA9F335D00E2E3AF0B8
:10227000E0E832D091505040E695001CCAF72BD0D0
:10228000FE2F29D0660F771F881FBB1F2617370721
:102290004807AB07B0E809F0BB0B802DBF01FF2753
:1022A00093585F4F3AF09E3F510578F00C94AC1173
:1022B0000C94F7115F3FE4F3983ED4F3869577953D
:1022C0006795B795F7959F5FC9F7880F911D96950C
:1022D000879597F90895E1E0660F771F881FBB1F68
:1022E000621773078407BA0720F0621B730B840B15
:1022F000BA0BEE1F88F7E09508950E94DC1188F074
:102300009F5798F0B92F9927B751B0F0E1F0660FB9
:10231000771F881F991F1AF0BA95C9F714C0B130FA
:1023200091F00E94F611B1E008950C94F611672F18
:10233000782F8827B85F39F0B93FCCF38695779529
:102340006795B395D9F73EF4909580957095619512
:102350007F4F8F4F9F4F089597F99F6780E870E0F8
:1023600060E008959FEF80EC089500240A9416160B
:10237000170618060906089500240A941216130673
:10238000140605060895092E0394000C11F4882301
:1023900052F0BB0F40F4BF2B11F460FF04C06F5F1D
:1023A0007F4F8F4F9F4F089557FD9058440F551FF3
:1023B00059F05F3F71F04795880F97FB991F61F0C7
:1023C0009F3F79F087950895121613061406551F3E
:1023D000F2CF4695F1DF08C0161617061806991FAA
:1023E000F1CF86957105610508940895E894BB279F
:1023F00066277727CB0197F908950E9410120C9455
:10240000C3110E94B51138F00E94BC1120F0952331
:1024100011F00C94AC110C94B21111240C94F7111E
:102420000E94D41170F3959FC1F3950F50E0551F92
:10243000629FF001729FBB27F00DB11D639FAA2719
:10244000F00DB11DAA1F649F6627B00DA11D661F68
:10245000829F2227B00DA11D621F739FB00DA11D89
:10246000621F839FA00D611D221F749F3327A00D43
:10247000611D231F849F600D211D822F762F6A2FDF
:1024800011249F5750409AF0F1F088234AF0EE0F44
:10249000FF1FBB1F661F771F881F91505040A9F771
:1024A0009E3F510580F00C94AC110C94F7115F3FE6
:1024B000E4F3983ED4F3869577956795B795F795AD
:1024C000E7959F5FC1F7FE2B880F911D9695879525
:1024D00097F90895AEE0B0E0E0E7F2E10C9415154D
:1024E0000D891E8986E08C831A8309838FEF9FE70D
:1024F0009E838D83AE01475E5F4F6F89788DCE01DD
:1025000001960E948D122F813885020F131FF8014A
:1025100010822E96E4E00C943115ABE0B0E0E3E9D4
:10252000F2E10C9408155C016B017A01FC01178241
:102530001682838181FFC4C12AE0422EF5012381E6
:10254000F60123FD859123FF81916F01811509F427
:102550000CC1853239F423FD959123FF91916F01D0
:10256000953229F4B50190E00E947914E7CF00E09C
:10257000512C10E0103210F59B32C9F050F490321B
:10258000B9F09332C9F09E3261F516FDEEC01064C9
:1025900005C09D3279F0903399F41160F60123FD66
:1025A000959123FF91916F019111E4CF20C01260AA
:1025B0001460F4CF1860F2CF1061F0CF17FD17C090
:1025C00080ED890F8A30F8F616FF05C0049D800D56
:1025D0001124082FE3CF549C800D1124582E106233
:1025E000DDCF9C3611F41068D9CF9836B9F2892F17
:1025F0008F7D85548330F0F1933609F45AC09337B8
:1026000009F465C0933509F471C0943619F0993610
:1026100009F09AC0F70117FF90C061917191819103
:1026200091917F011F7697FF08C0909580957095D6
:1026300061957F4F8F4F9F4F10682AE030E0AE01C9
:102640004F5F5F4F4A010E94A9148819882E16FF18
:10265000C1C0812F8E7F801608F0BBC014FF0DC152
:1026600012FD01C11E7E902E812F8678811509F4FE
:10267000BCC0FEC0F4E0EF0EF11C8FE3898366243A
:102680006394712CAE014F5F5F4F4A011F7713FDBA
:1026900003C065147104D0F161147104F1F5511493
:1026A00009F44CCFB50180E290E00E9479145A946D
:1026B000F6CFF70180818983A7014E5F5F4F7A01D2
:1026C00066246394712CCE0101964C01DFCFF70193
:1026D000819091907F01602F70E016FD02C06FEF36
:1026E0007FEFC4010E946E143C01D0CFF7018190AE
:1026F00091907F01602F70E016FD02C06FEF7FEFB9
:10270000C4010E9463143C011068C1CFB50180E28E
:1027100090E00E9479145A94BCCFF40117FD859182
:1027200017FF81914F01B50190E00E94791451107B
:102730005A94F1E06F1A7108AFCF61917191072E31
:10274000000C880B990B6DCF312EE89434F82AE0F9
:1027500030E0953731F1512F597F352E903799F070
:1027600058F49835A9F09F36D1F0F501868197810C
:102770002B96E1E10C9424159837B9F714FD05C0A8
:1027800020E130E00EC0689434F8689432F8F8CF55
:1027900014FF02C01660312E20E132E002C028E0B2
:1027A00030E0F70137FE10C06191719181919191F4
:1027B0007F01FE0131964F01AF010E94A9148819D3
:1027C000882E132D1F7743CF6191719180E090E0A7
:1027D000EFCF182F982C14FF47CFFE01E80DF11D05
:1027E0008081803309F042C0197E13FD0EC010FFB6
:1027F00050C0082D951418F4050D0919952C852D38
:102800008919591408F480E0980E951408F043C013
:10281000591814FF42C0B50180E390E00E9479147A
:1028200012FF09C088E590E011FD02C088E790E042
:10283000B5010E9479148016E0F18A94082D10E009
:102840000F5F1F4FAE014F5F5F4F4A01040F151F0F
:10285000F80182918F01B50190E00E9479148016F1
:102860009106B1F71CCF902E182FB7CF12FD02C0E2
:102870009394BBCF93949394B8CF902E182FF4CE0B
:10288000B50180E290E00E94791433943514C0F3CE
:10289000B6CF392CFBCF512CBCCF812F8678811538
:1028A00051F280E211FD8BE217FD8DE2B50190E05F
:1028B000C0CFB50180E390E00E9479140150BBCFF6
:1028C0008FEF9FEF55CFFC010590615070400110D4
:1028D000D8F7809590958E0F9F1F0895FC01615049
:1028E000704001900110D8F7809590958E0F9F1F32
:1028F00008950F931F93CF93DF93182F092FEB01A8
:102900008B8181FD09C01FEF0FEF812F902FDF9189
:10291000CF911F910F91089582FF14C02E813F81A6
:102920008C819D81281739073CF4E881F981CF011A
:1029300001969983888310838E819F8101969F835E
:102940008E83E3CFE885F985812F0995892BA1F343
:10295000DACFFA01AA27283051F1203181F1E89429
:102960006F936E7F6E5F7F4F8F4F9F4FAF4FB1E082
:102970003ED0B4E03CD0670F781F891F9A1FA11D7D
:10298000680F791F8A1F911DA11D6A0F711D811D7E
:10299000911DA11D20D009F468943F912AE0269F43
:1029A00011243019305D3193DEF6CF010895462FA2
:1029B0004770405D4193B3E00FD0C9F7F6CF462F83
:1029C0004F70405D4A3318F0495D31FD40524193EC
:1029D00002D0A9F7EACFB4E0A695979587957795A9
:1029E0006795BA95C9F700976105710508959B0130
:1029F000AC010A2E06945795479537952795BA95B9
:102A0000C9F7620F731F841F951FA01D08952F9291
:102A10003F924F925F926F927F928F929F92AF926E
:102A2000BF92CF92DF92EF92FF920F931F93CF93BB
:102A3000DF93CDB7DEB7CA1BDB0B0FB6F894DEBF52
:102A40000FBECDBF09942A88398848885F846E8478
:102A50007D848C849B84AA84B984C884DF80EE80C2
:102A6000FD800C811B81AA81B981CE0FD11D0FB6CB
:102A7000F894DEBF0FBECDBFED010895F894FFCFEF
:102A800025047304B004CD04EC04F4040005450DE2
:102A9000550DBA0D040E180E1D0E380E5B0E7D0E70
:042AA0008C0E9B0EEF
:102AA400A04F025202550258025B025D025F0261AE
:102AB40002500230333134004D6F756C617920530C
:102AC400756C74616E0025750056616C65757220B5
:102AD40064752063617074657572203A20004D41FD
:102AE4004A202D2050743A2025732C204F72693AC5
:102AF4002025732C204578743A2025730A00496EEA
:102B0400636F6E6E7500417563756E65000A496486
:102B1400656E74696669636174696F6E20646520AB
:102B24006C2765787472656D6974650A002D2D2DA6
:102B34002D2D2D2D2D2D2D2D2D2D2D2D2D2D2D2DC1
:102B44002D2D2D2D2D2D2D2D2D2D0A00506F696E1F
:102B54007420646520646570617274203A20000AF0
:102B64004F7269656E746174696F6E206465206468
:102B74006570617274203A20000A45787472656D3C
:102B84006974652074726F75766565203A20000A51
:102B94000A005472617665727365652064752070ED
:102BA4006172636F7572730A000A506F696E7420E4
:102BB400647520706F746561752031203A20000AB5
:102BC400506F696E7420647520706F746561752030
:102BD40032203A20000A506F696E742064752070A8
:102BE4006F746561752033203A2000202D20004E3B
:102BF40045004E4F00534500534F004100420043EF
:062C0400004400256400FD
:00000001FF
