:100000000C943F000C945E000C948A000C945C00ED
:100010000C945C000C945C000C945C000C945C00F0
:100020000C945C000C945C000C945C000C945C00E0
:100030000C945C000C94BA000C945C000C945C0072
:100040000C945C000C945C000C945C000C945C00C0
:100050000C945C000C945C000C945C000C945C00B0
:100060000C945C000C945C000C945C000C945C00A0
:100070000C945C000C945C000C945C00FE03112456
:100080001FBECFEFD8E0DEBFCDBF21E0A0E0B1E0E2
:1000900001C01D92A930B207E1F710E0CFE3D0E034
:1000A00004C02197FE010E947104CE33D107C9F725
:1000B0000E9495030C9486040C9400001F920F92EA
:1000C0000FB60F9211242F933F934F935F936F932B
:1000D0007F938F939F93AF93BF93EF93FF9386E0AC
:1000E00091E00E940201811519F081E080930001E6
:1000F000E09AFF91EF91BF91AF919F918F917F9186
:100100006F915F914F913F912F910F900FBE0F9084
:100110001F9018951F920F920FB60F9211242F93D4
:100120003F934F935F936F937F938F939F93AF937F
:10013000BF93EF93FF9385E091E00E94EC0081155F
:1001400039F040E050E060E087E091E00E94A101DA
:10015000E19AFF91EF91BF91AF919F918F917F9124
:100160006F915F914F913F912F910F900FBE0F9024
:100170001F9018958F9381E0809301018F911895BE
:10018000FC016083F8943AB1208181E090E0022E76
:1001900001C0880F0A94EAF7809583238AB9223038
:1001A00069F48091690081608093690080916900A1
:1001B0008D7F80936900E89A789408952330E1F761
:1001C0008091690084608093690080916900877FD5
:1001D00080936900E99AF0CFFC018FE59AEE0197D0
:1001E000F1F700C000008081823021F488274A990D
:1001F00083950895833021F488274B9B8395089538
:1002000080E00895FC018FE59AEE0197F1F700C0B8
:1002100000008081823021F488274A9B83950895CD
:10022000833021F488274B998395089580E00895C1
:10023000FC018081823011F4E8980895833009F43C
:10024000E9980895FC0125B1408181E090E0BC016E
:1002500002C0660F771F4A95E2F7262B25B925B114
:10026000318101C0880F3A95EAF78095822385B9DC
:100270000895FC0125B1418181E090E0BC0102C0FC
:10028000660F771F4A95E2F7262B25B925B13081F5
:1002900001C0880F3A95EAF78095822385B90895C1
:1002A000CF93DF93D82FC92F0E9422018FE99FE0BF
:1002B0000197F1F700C000008D2F9C2F0E9439019B
:1002C0008FE19EE40197F1F700C00000DF91CF912C
:1002D0000895CB01009709F408958A30910540F004
:1002E000EFE1FEE43197F1F700C000000A97F2CF8A
:1002F000EFECF7E03197F1F700C000000197EACF8B
:10030000FC01108281E0818384B1836084B9089507
:10031000FC0145B1208181E090E0BC0102C0660F84
:10032000771F2A95E2F79B012095242325B925B153
:10033000318101C0880F3A95EAF78095822385B90B
:1003400008950F931F93CF93DF93D82FC92F8A015E
:1003500061110BC00E942201B8018D2F9C2FDF91EB
:10036000CF911F910F910C946901613019F40E9493
:100370003901F2CF623019F40E945001EDCF0E9492
:100380008801EACFBF92CF92DF92EF92FF920F9354
:100390001F93CF93DF93EC01B62E122F032FC12CA6
:1003A000D12CE42EF12CCE14DF0454F0DF91CF9148
:1003B0001F910F91FF90EF90DF90CF90BF90089525
:1003C000412F502F6B2DCE010E94A101CE010E9422
:1003D0008801612F702FCE010E9469018FEFC81A2A
:1003E000D80AE1CFF8941092800088E080938100D1
:1003F00010928200EFE6F0E0808182608083789442
:100400000895CF93DF93EA019B01672B11F421E05C
:1004100030E088EE93E0B9010E9420049B01DE01E8
:100420000E946A049B01AC0160E072E18AE790E0FF
:100430000E9448042150310930938900209388009C
:10044000109285001092840080918100887F8093B3
:100450008100C130D10541F4809181008160809399
:100460008100DF91CF910895C830D10521F48091AA
:1004700081008260F4CFC034D10521F480918100E5
:100480008360EDCFC11581E0D80721F48091810010
:100490008460E5CFC115D44021F78091810085604B
:1004A000DECFE1E8F0E08081887F8083EFE6F0E056
:1004B00080818D7F80831092850010928400089542
:1004C000E1E8F0E08081887F8083109285001092BF
:1004D00084000895FC018AB1806C8AB98AB1806376
:1004E0008AB9A0EBB0E08C91816A8C93A1EBB0E06B
:1004F0008C9184608C931092B3001092B40010829F
:1005000011820895FC01362F253608F024E65FEFAE
:10051000259FC001112464E670E00E94340431304C
:1005200089F46093B300218355E0411112C02BB1CF
:1005300081E090E001C0880F5A95EAF78095822308
:100540008BB908953111F0CF6093B400208354E04B
:10055000ECCF4130B1F78BB121E030E001C0220F88
:100560005A95EAF7822BECCF0C9482021F93CF931B
:10057000DF93D82FC92F162F262F40E060E00E946E
:100580008202212F40E061E08D2F9C2FDF91CF91DF
:100590001F910C9482021F93CF93DF93D82FC92F02
:1005A000162F262F41E060E00E948202212F41E0B9
:1005B00061E08D2F9C2FDF91CF911F910C948202CF
:1005C0001F93CF93DF93D82FC92F162F862F642F19
:1005D0000E941404282F40E060E08D2F9C2F0E9481
:1005E0008202212F40E061E08D2F9C2FDF91CF917F
:1005F0001F910C9482020F931F93CF93DF93D82FF8
:10060000C92F162F042F262F40E060E00E9482029F
:10061000812F602F0E941404282F40E061E08D2F6D
:100620009C2FDF91CF911F910F910C9482021F9309
:10063000CF93DF93D82FC92F162F262F40E060E0ED
:100640000E948202212F41E061E08D2F9C2FDF91DB
:10065000CF911F910C948202EF92FF920F931F9300
:10066000CF93DF93EC01162FF42EE22E61110FC011
:1006700008810F1570F02F2D40E0612FCE01DF9122
:10068000CF911F910F91FF90EF900C9482020981FE
:10069000F0CF202F40E0612FCE010E9482028FE137
:1006A0009EE40197F1F700C000000E0DE2CFEF923B
:1006B000FF920F931F93CF93DF938C01D62FF42ECD
:1006C000E22EFC0161110FC0C081FC1670F02F2DCD
:1006D00041E06D2FC801DF91CF911F910F91FF90E5
:1006E000EF900C948202C181F0CF2C2F41E06D2F4E
:1006F000C8010E9482028FE19EE40197F1F700C0D9
:100700000000EC1610F4CE19E0CFCF2DDECFFC01A7
:100710001092B3001092B400108211820895FC016F
:1007200080810895FC018181089540E054E068E8EB
:1007300073E184E091E00E94010280910101811146
:1007400004C0809100018115C1F3F89424E630E0E3
:1007500045E061E087E091E00E94C2012FEF84E371
:100760009CE0215080409040E1F700C0000087E00D
:1007700091E00E94880164E682E091E00E94B60266
:100780002FEF83ED90E3215080409040E1F700C0CF
:10079000000042E064E682E091E00E94E0022FEF78
:1007A00083ED90E3215080409040E1F700C00000CD
:1007B00064E682E091E00E94B6022FEF83ED90E3C1
:1007C000215080409040E1F700C0000064E682E0E4
:1007D00091E00E94CB022FEF83ED90E32150804007
:1007E0009040E1F700C0000010920101109200015A
:1007F00084E091E00E94600278949FCF87E091E0CE
:100800000E94800162E086E091E00E94C00063E007
:1008100085E091E00E94C00084E091E00E94F20136
:1008200082E091E00C946A02992778E0880F991F82
:10083000961708F0961B881F7A95C9F7809508953A
:10084000AA1BBB1B51E107C0AA1FBB1FA617B707F6
:1008500010F0A61BB70B881F991F5A95A9F7809512
:100860009095BC01CD01089597FB072E16F40094D6
:1008700007D077FD09D00E94200407FC05D03EF484
:10088000909581959F4F0895709561957F4F08953C
:10089000A1E21A2EAA1BBB1BFD010DC0AA1FBB1F84
:1008A000EE1FFF1FA217B307E407F50720F0A21BF6
:1008B000B30BE40BF50B661F771F881F991F1A9463
:1008C00069F760957095809590959B01AC01BD018D
:1008D000CF0108950E947704B7FF0895821B930B00
:1008E0000895EE0FFF1F0590F491E02D0994A29F4B
:1008F000B001B39FC001A39F700D811D1124911DF4
:10090000B29F700D811D1124911D0895F894FFCFA1
:00000001FF
